{
  "contractName": "CompanyRegistration",
  "abi": [
    {
      "constant": true,
      "inputs": [
        {
          "name": "",
          "type": "address"
        }
      ],
      "name": "customers",
      "outputs": [
        {
          "name": "loyaltyPoints",
          "type": "uint256"
        },
        {
          "name": "totalFormality",
          "type": "uint256"
        }
      ],
      "payable": false,
      "stateMutability": "view",
      "type": "function"
    },
    {
      "constant": true,
      "inputs": [
        {
          "name": "",
          "type": "address"
        },
        {
          "name": "",
          "type": "uint256"
        }
      ],
      "name": "customerFormalities",
      "outputs": [
        {
          "name": "id",
          "type": "uint256"
        },
        {
          "name": "name",
          "type": "string"
        },
        {
          "name": "entity",
          "type": "string"
        },
        {
          "name": "price",
          "type": "uint256"
        }
      ],
      "payable": false,
      "stateMutability": "view",
      "type": "function"
    },
    {
      "constant": true,
      "inputs": [],
      "name": "owner",
      "outputs": [
        {
          "name": "",
          "type": "address"
        }
      ],
      "payable": false,
      "stateMutability": "view",
      "type": "function"
    },
    {
      "constant": true,
      "inputs": [
        {
          "name": "",
          "type": "uint256"
        }
      ],
      "name": "formalities",
      "outputs": [
        {
          "name": "id",
          "type": "uint256"
        },
        {
          "name": "name",
          "type": "string"
        },
        {
          "name": "entity",
          "type": "string"
        },
        {
          "name": "price",
          "type": "uint256"
        }
      ],
      "payable": false,
      "stateMutability": "view",
      "type": "function"
    },
    {
      "constant": true,
      "inputs": [
        {
          "name": "",
          "type": "address"
        }
      ],
      "name": "customerTotalFormalities",
      "outputs": [
        {
          "name": "",
          "type": "uint256"
        }
      ],
      "payable": false,
      "stateMutability": "view",
      "type": "function"
    },
    {
      "inputs": [],
      "payable": false,
      "stateMutability": "nonpayable",
      "type": "constructor"
    },
    {
      "anonymous": false,
      "inputs": [
        {
          "indexed": true,
          "name": "customer",
          "type": "address"
        },
        {
          "indexed": false,
          "name": "price",
          "type": "uint256"
        },
        {
          "indexed": false,
          "name": "formality",
          "type": "string"
        }
      ],
      "name": "FormalityAccomplished",
      "type": "event"
    },
    {
      "constant": false,
      "inputs": [
        {
          "name": "formalityIndex",
          "type": "uint256"
        }
      ],
      "name": "accomplishFormality",
      "outputs": [],
      "payable": true,
      "stateMutability": "payable",
      "type": "function"
    },
    {
      "constant": true,
      "inputs": [],
      "name": "totalFormalities",
      "outputs": [
        {
          "name": "",
          "type": "uint256"
        }
      ],
      "payable": false,
      "stateMutability": "view",
      "type": "function"
    },
    {
      "constant": false,
      "inputs": [],
      "name": "redeemLoyaltyPoints",
      "outputs": [],
      "payable": false,
      "stateMutability": "nonpayable",
      "type": "function"
    },
    {
      "constant": true,
      "inputs": [],
      "name": "getRefundableEther",
      "outputs": [
        {
          "name": "",
          "type": "uint256"
        }
      ],
      "payable": false,
      "stateMutability": "view",
      "type": "function"
    },
    {
      "constant": true,
      "inputs": [],
      "name": "getCompanyRegistrationBalance",
      "outputs": [
        {
          "name": "",
          "type": "uint256"
        }
      ],
      "payable": false,
      "stateMutability": "view",
      "type": "function"
    },
    {
      "constant": false,
      "inputs": [
        {
          "name": "account",
          "type": "address"
        },
        {
          "name": "companyId",
          "type": "uint256"
        },
        {
          "name": "name",
          "type": "string"
        },
        {
          "name": "status",
          "type": "string"
        },
        {
          "name": "observations",
          "type": "string"
        }
      ],
      "name": "registerCompany",
      "outputs": [],
      "payable": false,
      "stateMutability": "nonpayable",
      "type": "function"
    }
  ],
  "bytecode": "0x60806040526706f05b59d3b200006001553480156200001d57600080fd5b50336000806101000a81548173ffffffffffffffffffffffffffffffffffffffff021916908373ffffffffffffffffffffffffffffffffffffffff1602179055506002608060405190810160405280600181526020016040805190810160405280601381526020017f436f6e7374697475697220536f6369656461640000000000000000000000000081525081526020016040805190810160405280600781526020017f4e6f746172696f000000000000000000000000000000000000000000000000008152508152602001673782dace9d900000815250908060018154018082558091505090600182039060005260206000209060040201600090919290919091506000820151816000015560208201518160010190805190602001906200014892919062000805565b5060408201518160020190805190602001906200016792919062000805565b50606082015181600301555050506002608060405190810160405280600281526020016040805190810160405280601281526020017f496e7363726962697220536f636965646164000000000000000000000000000081525081526020016040805190810160405280601581526020017f526567697374726f2064652050726f706965646164000000000000000000000081525081526020016729a2241af62c0000815250908060018154018082558091505090600182039060005260206000209060040201600090919290919091506000820151816000015560208201518160010190805190602001906200025f92919062000805565b5060408201518160020190805190602001906200027e92919062000805565b50606082015181600301555050506002608060405190810160405280600381526020016040805190810160405280601a81526020017f526567697374726f20646520436f6e747269627579656e74657300000000000081525081526020016040805190810160405280601681526020017f4d696e6973746572696f2064652048616369656e64610000000000000000000081525081526020016729a2241af62c0000815250908060018154018082558091505090600182039060005260206000209060040201600090919290919091506000820151816000015560208201518160010190805190602001906200037692919062000805565b5060408201518160020190805190602001906200039592919062000805565b50606082015181600301555050506002608060405190810160405280600481526020016040805190810160405280601c81526020017f53656775726f2064652052696573676f732064652054726162616a6f0000000081525081526020016040805190810160405280600381526020017f494e53000000000000000000000000000000000000000000000000000000000081525081526020016729a2241af62c0000815250908060018154018082558091505090600182039060005260206000209060040201600090919290919091506000820151816000015560208201518160010190805190602001906200048d92919062000805565b506040820151816002019080519060200190620004ac92919062000805565b50606082015181600301555050506002608060405190810160405280600681526020016040805190810160405280601981526020017f5065726d69736f2064652046756e63696f6e616d69656e746f0000000000000081525081526020016040805190810160405280601381526020017f4d696e6973746572696f2064652053616c75640000000000000000000000000081525081526020016729a2241af62c000081525090806001815401808255809150509060018203906000526020600020906004020160009091929091909150600082015181600001556020820151816001019080519060200190620005a492919062000805565b506040820151816002019080519060200190620005c392919062000805565b50606082015181600301555050506002608060405190810160405280600581526020016040805190810160405280601581526020017f526567697374726f20636f6d6f20506174726f6e6f000000000000000000000081525081526020016040805190810160405280600481526020017f434353530000000000000000000000000000000000000000000000000000000081525081526020016729a2241af62c000081525090806001815401808255809150509060018203906000526020600020906004020160009091929091909150600082015181600001556020820151816001019080519060200190620006bb92919062000805565b506040820151816002019080519060200190620006da92919062000805565b50606082015181600301555050506002608060405190810160405280600781526020016040805190810160405280601581526020017f4162726972204375656e74612042616e6361726961000000000000000000000081525081526020016040805190810160405280600681526020017f42616e636f73000000000000000000000000000000000000000000000000000081525081526020016729a2241af62c000081525090806001815401808255809150509060018203906000526020600020906004020160009091929091909150600082015181600001556020820151816001019080519060200190620007d292919062000805565b506040820151816002019080519060200190620007f192919062000805565b5060608201518160030155505050620008b4565b828054600181600116156101000203166002900490600052602060002090601f016020900481019282601f106200084857805160ff191683800117855562000879565b8280016001018555821562000879579182015b82811115620008785782518255916020019190600101906200085b565b5b5090506200088891906200088c565b5090565b620008b191905b80821115620008ad57600081600090555060010162000893565b5090565b90565b6110b380620008c46000396000f3006080604052600436106100af576000357c0100000000000000000000000000000000000000000000000000000000900463ffffffff168063039cf183146100b45780632411ff73146100d4578063336989ae146100ff5780634a3a17891461015d5780636aa990e21461029d5780637112cf23146102c857806380caf9da146102f35780638da5cb5b14610412578063aa41464d14610469578063cf6bee7d14610589578063f997114f146105e0575b600080fd5b6100d2600480360381019080803590602001909291905050506105f7565b005b3480156100e057600080fd5b506100e96108e7565b6040518082815260200191505060405180910390f35b34801561010b57600080fd5b50610140600480360381019080803573ffffffffffffffffffffffffffffffffffffffff169060200190929190505050610935565b604051808381526020018281526020019250505060405180910390f35b34801561016957600080fd5b506101a8600480360381019080803573ffffffffffffffffffffffffffffffffffffffff16906020019092919080359060200190929190505050610959565b604051808581526020018060200180602001848152602001838103835286818151815260200191508051906020019080838360005b838110156101f85780820151818401526020810190506101dd565b50505050905090810190601f1680156102255780820380516001836020036101000a031916815260200191505b50838103825285818151815260200191508051906020019080838360005b8381101561025e578082015181840152602081019050610243565b50505050905090810190601f16801561028b5780820380516001836020036101000a031916815260200191505b50965050505050505060405180910390f35b3480156102a957600080fd5b506102b2610ad5565b6040518082815260200191505060405180910390f35b3480156102d457600080fd5b506102dd610ae2565b6040518082815260200191505060405180910390f35b3480156102ff57600080fd5b50610410600480360381019080803573ffffffffffffffffffffffffffffffffffffffff16906020019092919080359060200190929190803590602001908201803590602001908080601f0160208091040260200160405190810160405280939291908181526020018383808284378201915050505050509192919290803590602001908201803590602001908080601f0160208091040260200160405190810160405280939291908181526020018383808284378201915050505050509192919290803590602001908201803590602001908080601f0160208091040260200160405190810160405280939291908181526020018383808284378201915050505050509192919290505050610b61565b005b34801561041e57600080fd5b50610427610c6d565b604051808273ffffffffffffffffffffffffffffffffffffffff1673ffffffffffffffffffffffffffffffffffffffff16815260200191505060405180910390f35b34801561047557600080fd5b5061049460048036038101908080359060200190929190505050610c92565b604051808581526020018060200180602001848152602001838103835286818151815260200191508051906020019080838360005b838110156104e45780820151818401526020810190506104c9565b50505050905090810190601f1680156105115780820380516001836020036101000a031916815260200191505b50838103825285818151815260200191508051906020019080838360005b8381101561054a57808201518184015260208101905061052f565b50505050905090810190601f1680156105775780820380516001836020036101000a031916815260200191505b50965050505050505060405180910390f35b34801561059557600080fd5b506105ca600480360381019080803573ffffffffffffffffffffffffffffffffffffffff169060200190929190505050610e01565b6040518082815260200191505060405180910390f35b3480156105ec57600080fd5b506105f5610e19565b005b60008060028381548110151561060957fe5b9060005260206000209060040201915081600301543414151561062b57600080fd5b600560003373ffffffffffffffffffffffffffffffffffffffff1673ffffffffffffffffffffffffffffffffffffffff16815260200190815260200160002090506005816000016000828254019250508190555060018160010160008282540192505081905550600660003373ffffffffffffffffffffffffffffffffffffffff1673ffffffffffffffffffffffffffffffffffffffff1681526020019081526020016000208290806001815401808255809150509060018203906000526020600020906004020160009091929091909150600082015481600001556001820181600101908054600181600116156101000203166002900461072e929190610f13565b5060028201816002019080546001816001161561010002031660029004610756929190610f13565b506003820154816003015550505060028381548110151561077357fe5b906000526020600020906004020160008082016000905560018201600061079a9190610f9a565b6002820160006107aa9190610f9a565b60038201600090555050600760003373ffffffffffffffffffffffffffffffffffffffff1673ffffffffffffffffffffffffffffffffffffffff168152602001908152602001600020600081548092919060010191905055503373ffffffffffffffffffffffffffffffffffffffff167f95ec8d2e992a10f8be45e085150767f6b9d9dd240fe4747515569f8a0cc7114383600301548460010160405180838152602001806020018281038252838181546001816001161561010002031660029004815260200191508054600181600116156101000203166002900480156108d35780601f106108a8576101008083540402835291602001916108d3565b820191906000526020600020905b8154815290600101906020018083116108b657829003601f168201915b5050935050505060405180910390a2505050565b6000600560003373ffffffffffffffffffffffffffffffffffffffff1673ffffffffffffffffffffffffffffffffffffffff1681526020019081526020016000206000015460015402905090565b60056020528060005260406000206000915090508060000154908060010154905082565b60066020528160005260406000208181548110151561097457fe5b906000526020600020906004020160009150915050806000015490806001018054600181600116156101000203166002900480601f016020809104026020016040519081016040528092919081815260200182805460018160011615610100020316600290048015610a275780601f106109fc57610100808354040283529160200191610a27565b820191906000526020600020905b815481529060010190602001808311610a0a57829003601f168201915b505050505090806002018054600181600116156101000203166002900480601f016020809104026020016040519081016040528092919081815260200182805460018160011615610100020316600290048015610ac55780601f10610a9a57610100808354040283529160200191610ac5565b820191906000526020600020905b815481529060010190602001808311610aa857829003601f168201915b5050505050908060030154905084565b6000600280549050905090565b6000806000809054906101000a900473ffffffffffffffffffffffffffffffffffffffff1673ffffffffffffffffffffffffffffffffffffffff163373ffffffffffffffffffffffffffffffffffffffff16141515610b4057600080fd5b3090508073ffffffffffffffffffffffffffffffffffffffff163191505090565b6000610b6c86610ebd565b151515610b7857600080fd5b600360008773ffffffffffffffffffffffffffffffffffffffff1673ffffffffffffffffffffffffffffffffffffffff168152602001908152602001600020905084816000018190555083816001019080519060200190610bda929190610fe2565b5082816002019080519060200190610bf3929190610fe2565b5081816003019080519060200190610c0c929190610fe2565b506001600460008873ffffffffffffffffffffffffffffffffffffffff1673ffffffffffffffffffffffffffffffffffffffff16815260200190815260200160002060006101000a81548160ff021916908315150217905550505050505050565b6000809054906101000a900473ffffffffffffffffffffffffffffffffffffffff1681565b600281815481101515610ca157fe5b9060005260206000209060040201600091509050806000015490806001018054600181600116156101000203166002900480601f016020809104026020016040519081016040528092919081815260200182805460018160011615610100020316600290048015610d535780601f10610d2857610100808354040283529160200191610d53565b820191906000526020600020905b815481529060010190602001808311610d3657829003601f168201915b505050505090806002018054600181600116156101000203166002900480601f016020809104026020016040519081016040528092919081815260200182805460018160011615610100020316600290048015610df15780601f10610dc657610100808354040283529160200191610df1565b820191906000526020600020905b815481529060010190602001808311610dd457829003601f168201915b5050505050908060030154905084565b60076020528060005260406000206000915090505481565b600080600560003373ffffffffffffffffffffffffffffffffffffffff1673ffffffffffffffffffffffffffffffffffffffff168152602001908152602001600020915081600001546001540290503373ffffffffffffffffffffffffffffffffffffffff166108fc829081150290604051600060405180830381858888f19350505050158015610eae573d6000803e3d6000fd5b50600082600001819055505050565b6000600460008373ffffffffffffffffffffffffffffffffffffffff1673ffffffffffffffffffffffffffffffffffffffff16815260200190815260200160002060009054906101000a900460ff169050919050565b828054600181600116156101000203166002900490600052602060002090601f016020900481019282601f10610f4c5780548555610f89565b82800160010185558215610f8957600052602060002091601f016020900482015b82811115610f88578254825591600101919060010190610f6d565b5b509050610f969190611062565b5090565b50805460018160011615610100020316600290046000825580601f10610fc05750610fdf565b601f016020900490600052602060002090810190610fde9190611062565b5b50565b828054600181600116156101000203166002900490600052602060002090601f016020900481019282601f1061102357805160ff1916838001178555611051565b82800160010185558215611051579182015b82811115611050578251825591602001919060010190611035565b5b50905061105e9190611062565b5090565b61108491905b80821115611080576000816000905550600101611068565b5090565b905600a165627a7a723058205753fd2c39ae7380fcd7143587e91fb06013a4eb71e5f7c3688ba76e1b18d1e30029",
  "source": "pragma solidity ^0.4.24;\n\ncontract CompanyRegistration {\n\n  address public owner;\n\n  struct Company{\n      uint256 companyId;\n      string companyName;\n      string status;\n      string observations;\n  }\n\n  struct Customer {\n      uint loyaltyPoints;\n      uint totalFormality;\n  }  \n\n  struct Formality {\n      uint id;\n      string name;\n      string entity;\n      uint price;\n  }\n\n  uint etherPerPoint = 0.5 ether;\n\n  Formality[] public formalities;\n  mapping(address => Company) private companies;\n  mapping(address => bool) private registeredCompanies;\n  mapping(address => Customer) public customers;\n  mapping(address => Formality[]) public customerFormalities;\n  mapping(address => uint) public customerTotalFormalities;\n  \n  event FormalityAccomplished(address indexed customer, uint price, string formality);\n\n  constructor() {\n\n    owner = msg.sender;   \n    formalities.push(Formality(1,'Constituir Sociedad','Notario', 4 ether));\n    formalities.push(Formality(2,'Inscribir Sociedad','Registro de Propiedad', 3 ether));\n    formalities.push(Formality(3,'Registro de Contribuyentes','Ministerio de Hacienda', 3 ether));\n    formalities.push(Formality(4,'Seguro de Riesgos de Trabajo','INS', 3 ether)); \n    formalities.push(Formality(6,'Permiso de Funcionamiento','Ministerio de Salud', 3 ether));\n    formalities.push(Formality(5,'Registro como Patrono','CCSS', 3 ether));\n    formalities.push(Formality(7,'Abrir Cuenta Bancaria','Bancos', 3 ether));\n  }   \n\n  function accomplishFormality(uint formalityIndex) public payable {\n      Formality formality = formalities[formalityIndex];\n      require(msg.value == formality.price);\n\n      Customer storage customer = customers[msg.sender];\n      customer.loyaltyPoints += 5;\n      customer.totalFormality += 1;\n      customerFormalities[msg.sender].push(formality);\n      delete formalities[formalityIndex];\n      customerTotalFormalities[msg.sender] ++;\n\n      FormalityAccomplished(msg.sender, formality.price, formality.name);\n  }\n\n  function totalFormalities() public view returns (uint) {\n      return formalities.length;\n  }\n\n  function redeemLoyaltyPoints() public {\n      Customer storage customer = customers[msg.sender];\n      uint etherToRefund = etherPerPoint * customer.loyaltyPoints;\n      msg.sender.transfer(etherToRefund);\n      customer.loyaltyPoints = 0;\n  }\n\n  function getRefundableEther() public view returns (uint) {\n      return etherPerPoint * customers[msg.sender].loyaltyPoints;\n  }\n\n  function getCompanyRegistrationBalance() public isOwner view returns (uint) {\n      address companyRegistrationAddress = this;\n      return companyRegistrationAddress.balance;\n  }\n\n  modifier isOwner() {\n      require(msg.sender == owner);\n      _;\n  }\n\n  function registerCompany(address account, uint256 companyId, string name, string status, string observations) public {\n        require(!companyRegistered(account));\n        Company storage company = companies[account];\n        company.companyId = companyId;\n        company.companyName = name;\n        company.status = status;\n        company.observations = observations;\n        registeredCompanies[account] = true;\n    }\n\n     function companyRegistered(address addr) private view returns  (bool) {\n        return registeredCompanies[addr];\n    }\n}\n",
  "sourcePath": "C:\\Blockchain\\codigo\\company-registration-prototype\\contracts\\CompanyRegistration.sol",
  "compiler": {
    "name": "solc",
    "version": "0.4.24+commit.e67f0147.Emscripten.clang"
  },
  "schemaVersion": "2.0.1",
  "updatedAt": "2018-12-22T14:43:27.466Z"
}